S01D0000736D616C6C5F776561746865725F73746174696F6E2E737265633E
S11300000C943C000C9464000C9464000C94640004
S11300100C9464000C9464000C9464000C946400CC
S11300200C9464000C9464000C9464000C94EE042E
S11300300C9464000C9464000C9464000C946400AC
S11300400C9464000C9464000C9464000C9464009C
S11300500C9464000C9464000C9464000C9464008C
S11300600C9464000C946400B307B607B907BC078A
S1130070BF07C207C507050511241FBECFEFD8E08F
S1130080DEBFCDBF11E0A0E0B1E0E2E2F5E102C0E5
S113009005900D92AE30B107D9F721E0AEE0B1E0A2
S11300A001C01D92AF32B207E1F710E0CCE3D0E01B
S11300B004C02197FE010E94450ACB33D107C9F73A
S11300C00E94D8010C948F0A0C9400000895ECE768
S11300D0F0E080818064808380818083EAE7F0E0BF
S11300E08081836080838081806880830895EAE7CB
S11300F0F0E080818064808385B5816085BD85B5AD
S1130100897F85BD16BC808186FDFDCF80917800F6
S1130110FB01808380917900818381E008950895B3
S11301202FE38DE093E0215080409040E1F700C040
S113013000000895529A5A9887E893E10197F1F7DD
S113014000C000005A9A0895529885B5816085BD13
S113015016BC03C086B58C33C0F489B1282F247033
S113016082FDF8CF16BC03C096B5943688F499B1D5
S1130170892F847092FFF8CF16BC03C086B58436ED
S113018030F44A99FBCF81E0089580E00895822FEE
S1130190089528E030E090E016BC03C086B58634AC
S11301A0D0F44A9BFBCF8FE08A95F1F74A9B05C0B8
S11301B0892F880F982F916001C0990F16BC03C036
S11301C086B58D3258F44A99FBCF2150310921F775
S11301D0892F90E008958FEF9FEF08958FEF9FEFA1
S11301E008950F931F93CF938C01C62F862F0E94DF
S11301F06D09882331F16C2F8CEC0E94A4096C2FBB
S113020084E40E94A4098C2F0E94120A8823D9F343
S11302108C2F0E946D096C2F8CEC0E94A4096C2F0A
S11302208EEB0E94A4098C2F0E94DE09F8018083C2
S11302308C2F0E94DE09F80181838C2F0E946D09A6
S113024081E0CF911F910F910895AF92BF92DF92F9
S1130250EF92FF920F931F93CF93DF93CDB7DEB747
S11302602A970FB6F894DEBF0FBECDBF64E0CE016F
S113027009960E94F100882309F46CC0EFE1F1E0D3
S1130280898580838A8581836894DD24D1F863C05D
S11302908AE291E00E94C900D8018D938D01AA15CC
S11302A0BB05B1F78AE291E00E94C90049812A8125
S11302B030E0240F311D4B81240F311D4C81240F5C
S11302C0311D99272817390709F058C08D2D90E062
S11302D0FC01E15EFE4F8D5D9E4FD7012D917D01A6
S11302E02193E817F907C9F7B4E0DB0E47C0BE0154
S11302F0695F7F4F8BE291E00E947700882351F081
S1130300ED2DF0E0E15EFE4F8F818083888581834F
S1130310D394D394809129018A3079F460E0CE019A
S113032005960E94F100882341F0ED2DF0E0E15E96
S1130330FE4F8D8180838E818183409129016FE1FD
S113034071E08CE291E00E9479088CE291E00E94D5
S113035007071EC0D12C8AE291E00E949A008AE22B
S113036091E00E94A400882311F2FE0131967F01DE
S11303705E01F5E0AF0EB11C87018ACFBE01695F53
S11303807F4F8BE291E00E9477008111B9CFC2CFF9
S11303902A960FB6F894DEBF0FBECDBFDF91CF9182
S11303A01F910F91FF90EF90DF90BF90AF90089551
S11303B0CF93DF93CDB7DEB72C970FB6F894DEBF9B
S11303C00FBECDBF60E0CE010B960E94F1008823E2
S11303D021F08AE08093290103C088E080932901F9
S11303E08AE291E00E9490008BE291E00E94670013
S11303F06EEE8CE291E00E9432086AEF70E08CE2CB
S113040091E00E94080861E08CE291E00E94D80724
S11304108CE291E00E9475078CE291E00E948307D0
S11304206FEF8CE291E00E949C074091290160E00B
S11304308CE291E00E9446074091290161E08CE240
S113044091E00E9446074091290162E08CE291E02C
S11304500E9446074091290163E08CE291E00E94EA
S113046046074091290164E08CE291E00E9446072E
S11304704091290165E08CE291E00E9446078CE2FC
S113048091E00E943809E1E8F0E08081886080838F
S1130490AFE6B0E08C9182608C938081836080832E
S11304A088E09DE390938900809388007894539A20
S11304B0559884E090E038E02BB123272BB9E3E290
S11304C0F4EF3197F1F700C000000197A9F70E94FB
S11304D025016894BB24B3F80F2EF3E1CF2EF1E08D
S11304E0DF2EF02D0F2EF5E06F2E712CF02D689479
S11304F0552453F8A12C88248394912C1E01F5E0F3
S11305002F0E311CD0921201C092110120911301BF
S11305103091140180910201909103012817390749
S113052060F08091000190910101019731F40E94E3
S1130530250110921401109213014D9BF8C1809172
S1130540100181113EC2E5C180911001882309F494
S11305503EC28091000190910101019709F034C2DB
S1130560E9C180911001882309F433C2809100010C
S113057090910101892B09F4F2C12DC280911001DF
S1130580811102C289C062E679E08CE291E00E94A6
S113059091070F2EF7EEEF2EF02D0F2EF7EEFF2E14
S11305A0F02D07EE17EE27EE30E040E050E060E07B
S11305B08CE291E00E9412050F2EF2ECEF2EF02D4A
S11305C00F2EF2ECFF2EF02D02EC12EC22EC30E0B8
S11305D040E050E061E08CE291E00E9412050F2EB1
S11305E0F3ECEF2EF02DF12C00E010E020E030E0F1
S11305F040E050E062E08CE291E00E9412050F2E90
S1130600F4ECEF2EF02D20E030E040E050E063E029
S11306108CE291E00E9412050F2EF5ECEF2EF02DE6
S113062020E030E040E050E064E08CE291E00E94A1
S113063012050F2EF6ECEF2EF02D20E030E040E016
S113064050E065E08CE291E00E94120507EE17EE9F
S113065027EE37EE47EE50E060E070E08CE291E088
S11306600E942C067092030160920201252D3A2DFE
S11306708BB18B258BB983E294EF0197F1F700C01E
S1130680000021503109A1F710921001E1EEF4E0CD
S11306903197F1F700C000008CE291E00E945B0901
S11306A0882309F42FCF8091000190910101892BB7
S11306B009F028CF73C1909116019D3309F05CC0F5
S11306C0082E000C990B0DB71EB7209129014DB7C8
S11306D05EB7421B51090FB6F8945EBF0FBE4DBF03
S11306E04F5F5F4F1816190654F137C06D91633789
S11306F0B9F42130310549F48091170190E0C09795
S1130700909303018093020107C0CA010E94690A01
S1130710909303018093020181E080930E011DC038
S113072070ED760F7A3038F461932F5F3F4F821764
S11307309307E1F612C081E080930F010EC060912F
S11307401701633711F320ED260F2A30A0F7FA01C1
S1130750A8E1B1E020E030E0E7CF80910201909180
S11307600301029718F481E080930F010FB6F89407
S11307701EBF0FBE0DBF92C0913609F08CC0809190
S113078017018D3309F087C0E5E1F1E083818D83A2
S113079084818C8385818B8386818A838781898305
S11307A0BE016F5F7F4F8CE291E00E94A40676C089
S11307B09237D1F5809117018D3309F06CC0809187
S11307C0160160ED680F6230B8F4E5E1F1E0838171
S11307D08D8384818C8385818B8386818A838781C1
S11307E08983AE014F5F5F4F8CE291E00E94DA058E
S11307F081E080930E0152C08253843088F4E090EB
S11308001801F12C00E010E020E030E040E050E07E
S11308108CE291E00E94120581E080930E013EC0BB
S113082081E080930F013AC09636A9F580911601B4
S1130830823789F580911701853669F58091180111
S11308408D3349F58091190190ED980F9A3008F491
S1130850B2C00AC08D9190ED980F9A3028F481931C
S1130860E215F305B9F703C081E080930F01CE01CF
S113087001960E94690A9C01205639402E373105A1
S113088030F4BC018CE291E00E94910707C081E042
S113089080930F0103C081E080930F018CE291E00B
S11308A00E941E0780910F018823C9F08AE0E4E0CA
S11308B0F1E0DE01119601900D928A95E1F74091E5
S11308C02901BE016F5F7F4F8CE291E00E9479089D
S11308D0109201011092000110920F0113CE809129
S11308E00E01882361F04091290165E171E08CE2F9
S11308F091E00E9479080E94250110920E01109245
S113090014011092130190920101809200015B98EE
S1130910F9CD81E08093100110921401109213011B
S113092081EE94E00197F1F700C00000B5CE4D9B35
S11309300BCE12C08CE291E00E9438095B9A1092AF
S113094001011092000110921001E1EEF4E03197E0
S1130950F1F700C00000A0CE4D9B03CE12C08CE284
S113096091E00E941E075B98909201018092000121
S11309701092100181EE94E00197F1F700C000009D
S11309808BCE4D99FBCD88CEE0911101F0911201EF
S113099080819181049708F47FCEF5CD4AE065E12A
S11309A071E08CE291E00E94EA089091150194377D
S11309B009F0FECE80CE8983AAE1B1E0FE01329631
S11309C049CF4D9BC6CDC8CF4D9BD0CDDACF89B191
S11309D0D8CF89B161CE4D99D7CF5ECE1F920F92F9
S11309E00FB60F9211248F939F93809113019091CE
S11309F01401019690931401809313019F918F9198
S1130A000F900FBE0F901F9018958CE291E00E94FA
S1130A10D1088BE291E00E9466008AE291E00E9494
S1130A208F0008952F923F924F925F926F927F9220
S1130A308F929F92AF92BF92CF92DF92EF92FF92EA
S1130A400F931F93CF93DF93CDB7DEB727970FB6DE
S1130A50F894DEBF0FBECDBF663008F092C0252EDD
S1130A60342E432E522EF02FE62F6C01623098F470
S1130A702E2D3F2D402F512F652D742D832D922D1A
S1130A802F3F3F4F4F4F5F4F6F4F710581059105CA
S1130A90A9F0A0F076C02E2D3F2D402F512F652DAB
S1130AA0742D832D922D2F3F31054105510561058C
S1130AB0710581059105E1F1D8F163C0CE0101967C
S1130AC05C013C011F821E822E2D3F2D4F2F512F82
S1130AD0652D742D832D922D0E810E944D0AD30114
S1130AE02D933D01AE81BF811896BF83AE83989745
S1130AF059F72A98E11106C06AE2C60102960E94DB
S1130B003F0A38C06BE2C60102960E943F0A32C017
S1130B10F50161915F01C6010E943F0AA016B1066A
S1130B20B9F72A9A0FB6F894DEBF0FBECDBF29C01D
S1130B30E33049F018F4E23071F00BC0E43029F0EE
S1130B40E53029F006C06DE007C06EE005C06FE037
S1130B5003C060E001C06CE02A98F2E0CF0ED11C23
S1130B606062C6010E943F0A6E2DC6010E943F0AC0
S1130B702A9A07C08E010A5F1F4F82E0C80ED11C5B
S1130B80C7CF27960FB6F894DEBF0FBECDBFDF9157
S1130B90CF911F910F91FF90EF90DF90CF90BF9076
S1130BA0AF909F908F907F906F905F904F903F9009
S1130BB02F900895EF92FF920F931F93CF93DF939B
S1130BC0663008F042C08A01EC016230C0F42A9811
S1130BD0611105C06AE202960E943F0A31C06BE2CD
S1130BE002960E943F0A2CC0F70161917F01CE0159
S1130BF00E943F0AE016F106B9F72A9A26C063302C
S1130C0049F018F4623071F00BC0643029F065309B
S1130C1029F006C06DE007C06EE005C06FE003C0B8
S1130C2060E001C06CE02A9822966062CE010E94C6
S1130C303F0AF8016081CE010E943F0A2A9A05C04A
S1130C4078010B5F1F4F2296CFCFDF91CF911F9179
S1130C500F91FF90EF9008953F924F925F926F92A1
S1130C607F928F929F92AF92BF92CF92DF92EF9238
S1130C70FF920F931F93CF93DF9300D000D01F9266
S1130C80CDB7DEB75C01902E822E732E642E552EC6
S1130C90462E372E202F312F482D572D662D752D9A
S1130CA0842D932D2F3F3F4F4F4F5F4F6F4F710553
S1130CB08105910509F088F5CE0101967C01DC01DE
S1130CC0E0E0F0E0292D312F482D572D662D752DAC
S1130CD0842D932D0E2F0E944D0A2D933896E832C1
S1130CE0F10581F785012A980E5F1F4F60E3C80163
S1130CF00E943F0A5E0196E0A90EB11CF7016191C2
S1130D007F01C8010E943F0AEA14FB04B9F72A9A3A
S1130D100FB6F894DEBF0FBECDBF0F900F900F90AB
S1130D200F900F90DF91CF911F910F91FF90EF9053
S1130D30DF90CF90BF90AF909F908F907F906F90F7
S1130D405F904F903F900895EF92FF920F931F93FF
S1130D50CF93DF93EB012A9802967C0160E30E9413
S1130D603F0A8E012596F80161918F01C7010E9407
S1130D703F0A0C171D07B9F72A9ADF91CF911F91EB
S1130D800F91FF90EF900895CF93DF932A98EC0191
S1130D902296CE010E943F0A6FEFCE010E943F0AC5
S1130DA02A9ADF91CF9108951F93CF93DF93142F45
S1130DB02A98EC0122966062CE010E943F0A612FBC
S1130DC0CE010E943F0A2A9A00C000C0DF91CF9151
S1130DD01F910895CF93DF93FC0120812130A1F06E
S1130DE0EC0160E00E94C4068E7F482F426060E000
S1130DF0CE010E94D40686E791E00197F1F700C086
S1130E00000081E088831982DF91CF910895CF9308
S1130E10DF93FC012081222371F0EC012E9800C0A5
S1130E2000C060E00E94C406482F4D7F60E0CE0100
S1130E300E94D4061882DF91CF910895CF93DF9357
S1130E40EC018981813019F4CE010E940707CE019B
S1130E500E94EA068981882389F02E9860E0CE01F9
S1130E600E94C406482F4E7F60E0CE010E94D40643
S1130E708BE28A95F1F70000198205C02E988BE267
S1130E808A95F1F70000DF91CF910895413260F522
S1130E906230A1F028F4662349F0613059F01EC095
S1130EA06430A1F078F06530A9F018C061E10E94C7
S1130EB0D406089562E10E94D406089563E10E9475
S1130EC0D406089564E10E94D406089565E10E9461
S1130ED0D406089566E10E94D406089589EF90E04F
S1130EE00197F1F700C000000895CF93DF93EC0160
S1130EF061E00E94C40640E061E0CE010E94D40695
S1130F00DF91CF910895CF93DF93EC0164E00E94C9
S1130F10C40640E064E0CE010E94D406DF91CF9184
S1130F200895AB01405659404E37510520F44F7790
S1130F3065E00E94D40608950F931F93CF93DF9327
S1130F40EC01062F62E00E94C406002E000C110B77
S1130F50220B330BF8013196E730F105C8F4EC5C51
S1130F60FF4F0C94450A482F4F6319C0482F416026
S1130F7016C0482F426013C0482F446010C0482F49
S1130F8048600DC0482F40610AC0482F406207C026
S1130F9089EF90E00197F1F700C0000040E062E0C3
S1130FA0CE010E94D406DF91CF911F910F91089535
S1130FB00F931F93CF93DF93EC01162F60E00E94F1
S1130FC0C406082F0C70111107C061E0CE010E9405
S1130FD0C406811110C012C0113019F0123069F02A
S1130FE002C008600BC089EF90E00197F1F700C0E0
S1130FF0000000E003C000E001C00CE0402F60E00E
S1131000CE010E94D406DF91CF911F910F910895D4
S11310100F931F93CF93DF938C01EB0166E00E9443
S1131020C406482F477DC83E83E0D80791F0C03DF1
S113103097E0D90729F0CA3FD10521F4406209C0DD
S1131040486007C089EF90E00197F1F700C0000005
S113105040E066E0C8010E94D406DF91CF911F9161
S11310600F9108950F931F93CF938C01C62F66E0C1
S11310700E94C406482F497FC43F61F01CF4CE3E51
S113108091F00AC0CA3F21F0C11106C046600BC0EE
S1131090446009C0426007C089EF90E00197F1F70E
S11310A000C0000040E066E0C8010E94D406CF9171
S11310B01F910F9108952A986FEF02960E943F0A9C
S11310C02A9A00C000C00895CF93DF93EC012A98B8
S11310D061EE02960E943F0A2A9ACE010E945B08A2
S11310E0482F406267E0CE010E94D406DF91CF9181
S11310F00895BF92CF92DF92EF92FF920F931F93C6
S1131100CF93DF938C017B01B42E2E982A986C0127
S113111082E0C80ED11C60EAC6010E943F0ABB20CF
S113112051F0E701EB0CF11C6991C6010E943F0AE2
S1131130CE15DF05C9F72A9AC8010E941E072E9A08
S113114085E08A95F1F72E98C9E3D5E003C0000045
S1131150219729F0C8010E945B0885FFF8CFC801D8
S11311600E946408DF91CF911F910F91FF90EF903F
S1131170DF90CF90BF900895CF93DF93EC010E944E
S11311805B08482F406467E0CE010E94D4062A9889
S113119062EECE0102960E943F0A2A9ADF91CF9115
S11311A00895CF93DF93EC0187EA91E60197F1F775
S11311B000C00000CE0102960E94370A8FEF888398
S11311C08983CE010E946408CE010E94BC08DF918D
S11311D0CF910895AF92BF92CF92DF92EF92FF9298
S11311E00F931F93CF93DF93413290F5C42E8B015D
S11311F05C012A987C0182E0E80EF11C60E6C701DC
S11312000E943F0A6FEFC7010E943F0AD82E2A9A14
S113121080E28D15F8F0DD20F9F02A9861E6C70127
S11312200E943F0ACC2059F0E8010C0D111D6FEF0C
S1131230C7010E943F0A8993C017D107C1F72A9AB0
S1131240C5010E94BC0882E38A95F1F78D2D05C083
S11312508FEF03C08FEF01C080E0DF91CF911F912A
S11312600F91FF90EF90DF90CF90BF90AF900895D3
S1131270CF93DF93EC018881813019F0CE010E9475
S1131280EA0689818130A1F060E0CE010E94C406A3
S1131290482F416060E0CE010E94D406CE010E9436
S11312A0BC082E9A8BE28A95F1F7000081E08983CD
S11312B0DF91CF910895CF93DF93EC018981813041
S11312C019F0CE010E943809CE010E945B0886FB0A
S11312D0882780F9DF91CF9108959AB121E030E019
S11312E0082E02C0220F331F0A94E2F7922B9AB9F8
S11312F04BB1522F509545234BB960EF6A95F1F7E6
S11313009AB195239AB974E17A95F1F749B150E00D
S1131310BA0102C0759567958A95E2F760FD10C021
S113132085B5816085BD16BC03C086B58A3F50F47F
S113133089B190E082239323892BB9F381E0089546
S113134080E0089580E0089521E030E002C0220F9B
S1131350331F6A95E2F7E22F922F909520E030E058
S1131360682F70E0AB01022E02C0559547950A9490
S1131370E2F740FF0FC04AB14E2B4AB94BB14923A3
S11313804BB900004AB149234AB983E18A95F1F780
S113139000C00EC04AB14E2B4AB94BB149234BB9D8
S11313A083E18A95F1F700C04AB149234AB90000A4
S11313B02F5F3F4F28303105A9F60895E1E0F0E0B2
S11313C002C0EE0FFF1F8A95E2F77E2F6E2F609505
S11313D040E050E080E0A1E0B0E09AB1972B9AB9E8
S11313E09BB196239BB900009AB196239AB993E0D6
S11313F09A95F1F729B130E02E233F23232B41F0B6
S11314009D01042E02C0220F331F0A94E2F7820FBB
S113141090E19A95F1F700C04F5F5F4F4830510556
S1131420E1F608959AB121E030E0082E02C0220FBF
S1131430331F0A94E2F7922B9AB99BB12095922319
S11314409BB900009AB129232AB943E04A95F1F7E0
S113145029B150E15A95F1F700C030E0A90102C06A
S1131460559547958A95E2F7CA018170089584B12C
S11314708C6684B98CB580658CBD2A9A08956EBD3E
S11314800DB407FEFDCF8EB50895EE0FFF1F059036
S1131490F491E02D099497FB10F8169400080F932B
S11314A0083098F00850232F342F452F562F672FDC
S11314B0782F892F902DF4CF05949795879577955C
S11314C0679557954795379527950A95AAF70F91EC
S11314D00895FC0188279927E89421912032E9F3A3
S11314E0293010F02E30C8F32B3241F02D3239F46C
S11314F0689404C00E94870A820F911D2191205391
S11315002A30C0F31EF4909581959F4F08957AE098
S1131510979F902D879F802D910D11240895F89405
S1051520FFCFF7
S1111522010005002D6572726F72212D2D2DB2
S9030000FC
